:1000000065C000007AC0000078C0000076C0000023
:1000100074C0000072C0000070C000006EC000001C
:100020006CC000006AC0000068C0000066C000002C
:1000300064C0000062C0000060C000005EC000003C
:100040005CC000005AC0000058C0000056C000004C
:1000500054C0000052C0000050C000004EC000005C
:100060004CC000004AC0000048C0000046C000006C
:1000700044C0000042C0000040C000003EC000007C
:100080003CC000003AC0000038C0000036C000008C
:1000900034C0000032C0000030C000002EC000009C
:1000A0002CC000002AC0000028C0000026C00000AC
:1000B00024C0000022C0000020C000001EC00000BC
:1000C0001CC000001AC0000018C0000011241FBE90
:1000D000CFEFD1E2DEBFCDBF00E00CBF12E0A0E069
:1000E000B2E0ECE7F2E000E00BBF02C007900D9237
:1000F000AA32B107D9F798D0BFC082CF92E095B9A4
:10010000E7EAF1E63197F1F700C0000082B915B8CF
:1001100087EA91E60197F1F700C00000089593E0A7
:1001200095B982B983ED90E30197F1F700C0000023
:1001300081E085B908950F931F93CF93DF93EC016E
:100140008B0188E390E0DADF8EE090E0D7DF0130CA
:10015000110521F480E890E0D1DF06C002301105DE
:1001600019F480EC90E0CADF8881882331F0219671
:1001700090E0D5DF89918111FBCFDF91CF911F9165
:100180000F91089592E09EB9E7EAF1E63197F1F711
:1001900000C000008BB91EB887EA91E60197F1F71D
:1001A00000C00000089593E09EB98BB983ED90E301
:1001B0000197F1F700C0000081E08EB908950F9318
:1001C0001F93CF93DF93EC018B0188E390E0DADF9C
:1001D0008EE090E0D7DF0130110521F480E890E057
:1001E000D1DF0EC00230110521F480EC90E0CADFAF
:1001F0000DC00330110521F480E990E0C3DF06C093
:100200000430110519F480ED90E0BCDF888188236B
:1002100031F0219690E0C7DF89918111FBCFDF910A
:10022000CF911F910F910895CF93CFEFC1B9C4B96A
:1002300061E070E080E092E07EDF62E070E086E006
:1002400092E079DFCAB9CDB961E070E080E092E078
:10025000B6DF62E070E086E092E0B1DF63E070E07C
:1002600082E192E0ACDF64E070E080E292E0A7DF40
:0C02700080E090E0CF910895F894FFCF5B
:10027C00417373656C004D757373616D6174646962
:10028C006E00416D616E67656C64696B797A79009B
:0A029C0049532D313830384B000073
:00000001FF
